{
  "_format": "hh-sol-artifact-1",
  "contractName": "Counter",
  "sourceName": "contracts/Counter.sol",
  "abi": [
    {
      "inputs": [
        {
          "internalType": "string",
          "name": "_name",
          "type": "string"
        },
        {
          "internalType": "uint256",
          "name": "_initialCount",
          "type": "uint256"
        }
      ],
      "stateMutability": "nonpayable",
      "type": "constructor"
    },
    {
      "inputs": [],
      "name": "count",
      "outputs": [
        {
          "internalType": "uint256",
          "name": "",
          "type": "uint256"
        }
      ],
      "stateMutability": "view",
      "type": "function"
    },
    {
      "inputs": [],
      "name": "decrement",
      "outputs": [
        {
          "internalType": "uint256",
          "name": "newCount",
          "type": "uint256"
        }
      ],
      "stateMutability": "nonpayable",
      "type": "function"
    },
    {
      "inputs": [],
      "name": "getCount",
      "outputs": [
        {
          "internalType": "uint256",
          "name": "",
          "type": "uint256"
        }
      ],
      "stateMutability": "view",
      "type": "function"
    },
    {
      "inputs": [],
      "name": "getName",
      "outputs": [
        {
          "internalType": "string",
          "name": "currentName",
          "type": "string"
        }
      ],
      "stateMutability": "view",
      "type": "function"
    },
    {
      "inputs": [],
      "name": "increment",
      "outputs": [
        {
          "internalType": "uint256",
          "name": "newCount",
          "type": "uint256"
        }
      ],
      "stateMutability": "nonpayable",
      "type": "function"
    },
    {
      "inputs": [],
      "name": "name",
      "outputs": [
        {
          "internalType": "string",
          "name": "",
          "type": "string"
        }
      ],
      "stateMutability": "view",
      "type": "function"
    },
    {
      "inputs": [
        {
          "internalType": "string",
          "name": "_newName",
          "type": "string"
        }
      ],
      "name": "setName",
      "outputs": [
        {
          "internalType": "string",
          "name": "newName",
          "type": "string"
        }
      ],
      "stateMutability": "nonpayable",
      "type": "function"
    }
  ],
  "bytecode": "0x60806040523480156200001157600080fd5b5060405162000f6b38038062000f6b833981810160405281019062000037919062000226565b8160019081620000489190620004cd565b50806000819055505050620005b4565b6000604051905090565b600080fd5b600080fd5b600080fd5b600080fd5b6000601f19601f8301169050919050565b7f4e487b7100000000000000000000000000000000000000000000000000000000600052604160045260246000fd5b620000c18262000076565b810181811067ffffffffffffffff82111715620000e357620000e262000087565b5b80604052505050565b6000620000f862000058565b9050620001068282620000b6565b919050565b600067ffffffffffffffff82111562000129576200012862000087565b5b620001348262000076565b9050602081019050919050565b60005b838110156200016157808201518184015260208101905062000144565b60008484015250505050565b6000620001846200017e846200010b565b620000ec565b905082815260208101848484011115620001a357620001a262000071565b5b620001b084828562000141565b509392505050565b600082601f830112620001d057620001cf6200006c565b5b8151620001e28482602086016200016d565b91505092915050565b6000819050919050565b6200020081620001eb565b81146200020c57600080fd5b50565b6000815190506200022081620001f5565b92915050565b6000806040838503121562000240576200023f62000062565b5b600083015167ffffffffffffffff81111562000261576200026062000067565b5b6200026f85828601620001b8565b925050602062000282858286016200020f565b9150509250929050565b600081519050919050565b7f4e487b7100000000000000000000000000000000000000000000000000000000600052602260045260246000fd5b60006002820490506001821680620002df57607f821691505b602082108103620002f557620002f462000297565b5b50919050565b60008190508160005260206000209050919050565b60006020601f8301049050919050565b600082821b905092915050565b6000600883026200035f7fffffffffffffffffffffffffffffffffffffffffffffffffffffffffffffffff8262000320565b6200036b868362000320565b95508019841693508086168417925050509392505050565b6000819050919050565b6000620003ae620003a8620003a284620001eb565b62000383565b620001eb565b9050919050565b6000819050919050565b620003ca836200038d565b620003e2620003d982620003b5565b8484546200032d565b825550505050565b600090565b620003f9620003ea565b62000406818484620003bf565b505050565b5b818110156200042e5762000422600082620003ef565b6001810190506200040c565b5050565b601f8211156200047d576200044781620002fb565b620004528462000310565b8101602085101562000462578190505b6200047a620004718562000310565b8301826200040b565b50505b505050565b600082821c905092915050565b6000620004a26000198460080262000482565b1980831691505092915050565b6000620004bd83836200048f565b9150826002028217905092915050565b620004d8826200028c565b67ffffffffffffffff811115620004f457620004f362000087565b5b620005008254620002c6565b6200050d82828562000432565b600060209050601f83116001811462000545576000841562000530578287015190505b6200053c8582620004af565b865550620005ac565b601f1984166200055586620002fb565b60005b828110156200057f5784890151825560018201915060208501945060208101905062000558565b868310156200059f57848901516200059b601f8916826200048f565b8355505b6001600288020188555050505b505050505050565b6109a780620005c46000396000f3fe608060405234801561001057600080fd5b506004361061007d5760003560e01c80632baeceb71161005b5780632baeceb7146100dc578063a87d942c146100fa578063c47f002714610118578063d09de08a146101485761007d565b806306661abd1461008257806306fdde03146100a057806317d7de7c146100be575b600080fd5b61008a610166565b6040516100979190610394565b60405180910390f35b6100a861016c565b6040516100b5919061043f565b60405180910390f35b6100c66101fa565b6040516100d3919061043f565b60405180910390f35b6100e461028c565b6040516100f19190610394565b60405180910390f35b6101026102ad565b60405161010f9190610394565b60405180910390f35b610132600480360381019061012d91906105aa565b6102b6565b60405161013f919061043f565b60405180910390f35b61015061035a565b60405161015d9190610394565b60405180910390f35b60005481565b6001805461017990610622565b80601f01602080910402602001604051908101604052809291908181526020018280546101a590610622565b80156101f25780601f106101c7576101008083540402835291602001916101f2565b820191906000526020600020905b8154815290600101906020018083116101d557829003601f168201915b505050505081565b60606001805461020990610622565b80601f016020809104026020016040519081016040528092919081815260200182805461023590610622565b80156102825780601f1061025757610100808354040283529160200191610282565b820191906000526020600020905b81548152906001019060200180831161026557829003601f168201915b5050505050905090565b60008060008154809291906102a090610682565b9190505550600054905090565b60008054905090565b606081600190816102c79190610857565b50600180546102d590610622565b80601f016020809104026020016040519081016040528092919081815260200182805461030190610622565b801561034e5780601f106103235761010080835404028352916020019161034e565b820191906000526020600020905b81548152906001019060200180831161033157829003601f168201915b50505050509050919050565b600080600081548092919061036e90610929565b9190505550600054905090565b6000819050919050565b61038e8161037b565b82525050565b60006020820190506103a96000830184610385565b92915050565b600081519050919050565b600082825260208201905092915050565b60005b838110156103e95780820151818401526020810190506103ce565b60008484015250505050565b6000601f19601f8301169050919050565b6000610411826103af565b61041b81856103ba565b935061042b8185602086016103cb565b610434816103f5565b840191505092915050565b600060208201905081810360008301526104598184610406565b905092915050565b6000604051905090565b600080fd5b600080fd5b600080fd5b600080fd5b7f4e487b7100000000000000000000000000000000000000000000000000000000600052604160045260246000fd5b6104b7826103f5565b810181811067ffffffffffffffff821117156104d6576104d561047f565b5b80604052505050565b60006104e9610461565b90506104f582826104ae565b919050565b600067ffffffffffffffff8211156105155761051461047f565b5b61051e826103f5565b9050602081019050919050565b82818337600083830152505050565b600061054d610548846104fa565b6104df565b9050828152602081018484840111156105695761056861047a565b5b61057484828561052b565b509392505050565b600082601f83011261059157610590610475565b5b81356105a184826020860161053a565b91505092915050565b6000602082840312156105c0576105bf61046b565b5b600082013567ffffffffffffffff8111156105de576105dd610470565b5b6105ea8482850161057c565b91505092915050565b7f4e487b7100000000000000000000000000000000000000000000000000000000600052602260045260246000fd5b6000600282049050600182168061063a57607f821691505b60208210810361064d5761064c6105f3565b5b50919050565b7f4e487b7100000000000000000000000000000000000000000000000000000000600052601160045260246000fd5b600061068d8261037b565b9150600082036106a05761069f610653565b5b600182039050919050565b60008190508160005260206000209050919050565b60006020601f8301049050919050565b600082821b905092915050565b60006008830261070d7fffffffffffffffffffffffffffffffffffffffffffffffffffffffffffffffff826106d0565b61071786836106d0565b95508019841693508086168417925050509392505050565b6000819050919050565b600061075461074f61074a8461037b565b61072f565b61037b565b9050919050565b6000819050919050565b61076e83610739565b61078261077a8261075b565b8484546106dd565b825550505050565b600090565b61079761078a565b6107a2818484610765565b505050565b5b818110156107c6576107bb60008261078f565b6001810190506107a8565b5050565b601f82111561080b576107dc816106ab565b6107e5846106c0565b810160208510156107f4578190505b610808610800856106c0565b8301826107a7565b50505b505050565b600082821c905092915050565b600061082e60001984600802610810565b1980831691505092915050565b6000610847838361081d565b9150826002028217905092915050565b610860826103af565b67ffffffffffffffff8111156108795761087861047f565b5b6108838254610622565b61088e8282856107ca565b600060209050601f8311600181146108c157600084156108af578287015190505b6108b9858261083b565b865550610921565b601f1984166108cf866106ab565b60005b828110156108f7578489015182556001820191506020850194506020810190506108d2565b868310156109145784890151610910601f89168261081d565b8355505b6001600288020188555050505b505050505050565b60006109348261037b565b91507fffffffffffffffffffffffffffffffffffffffffffffffffffffffffffffffff820361096657610965610653565b5b60018201905091905056fea264697066735822122002994beb50799324e80aedb9a8717b6d170b2af36c04ffdff650f7883886bc6664736f6c63430008110033",
  "linkReferences": {},
  "deployedLinkReferences": {}
}